:020000040C00EE
:100000000088FE1F0102000825020108990200086D
:1000100099020008990200089902000800000000F7
:10002000000000000000000000000000990200082D
:10003000990200080000000099020008256A0008E3
:100040009902000899020008990200089902000824
:100050009902000899020008990200089902000814
:1000600099020008000000000000000000000000ED
:100070009902000800000000990200089902000897
:1000800099020008990200089902000899020008E4
:1000900099020008990200089902000899020008D4
:1000A00099020008990200089902000899020008C4
:1000B00099020008990200089902000899020008B4
:1000C00099020008990200089902000899020008A4
:1000D0009902000899020008990200089902000894
:1000E0009902000899020008990200089902000884
:1000F0009902000899020008990200089902000874
:100100009902000899020008990200089902000863
:100110009902000899020008990200089902000853
:100120009902000899020008990200089902000843
:100130009902000899020008990200089902000833
:100140000D090008990200089902000899020008A8
:100150009902000899020008990200089902000813
:10016000000000000000000000000000000000008F
:1001700099020008990200089902000899020008F3
:1001800099020008990200089902000899020008E3
:1001900099020008990200089902000899020008D3
:1001A00099020008990200089902000899020008C3
:1001B00099020008990200089902000899020008B3
:1001C00099020008990200089902000899020008A3
:1001D0009902000899020008990200080000000036
:1001E00099020008FD83000899020008990200089E
:1001F00099020008000000000D84000800000000C3
:10020000DFF874D01D4880471D4C1E4DAC4209DA02
:1002100021686268A368043BA2BFC858D050FAE7BF
:100220000C34F3E7184B194CA34208DA19685A68E2
:100230000020043AA4BF8850FBE70833F4E71448D1
:100240008047144880470000CC45010C0088FE1F01
:1002500078BB0000CC45010C0088FE1F00000000A8
:100260007843FF1F2C0F000000000020000000005A
:1002700000000020000000000088FE1F211E000872
:1002800048020008600200086002000878020008C6
:10029000F1160108C5000108FEE7000080B400AFB8
:1002A0001A4B1B680133194A1360194B1B68002B4A
:1002B00004D0174B1B68013B154A1360154B1B6894
:1002C000002B04D0134B1B68013B124A1360124BE6
:1002D0001B68002B04D0104B1B68013B0E4A1360B7
:1002E0000E4B1B68002B04D00C4B1B68013B0B4AC8
:1002F00013600B4B1B68002B04D0094B1B68013BA0
:10030000074A1360BD465DF8047B70477843FF1FC2
:100310008C43FF1F7C43FF1F8043FF1F8443FF1F4D
:100320008843FF1F80B584B000AF786078680121F2
:100330000A4A002306F0D4FB0246094B1A60084B18
:100340001B68002B02D00023FB7301E00723FB7323
:10035000FB7B18461037BD4680BD00BF9D020008DC
:100360009043FF1F80B582B000AF0D4B1B68002B80
:100370000FD00B4B1B68184606F050FC0346BB71B0
:10038000BB79002B02D10023FB7104E00723FB7132
:1003900001E00823FB71FB7918460837BD4680BD94
:1003A0009043FF1F80B483B000AF7860034A7B683E
:1003B00013600C37BD465DF8047B70477C43FF1F1C
:1003C00080B400AF034B1B681846BD465DF8047B44
:1003D000704700BF7C43FF1F80B483B000AF7860DC
:1003E000034A7B6813600C37BD465DF8047B704799
:1003F0008843FF1F80B400AF034B1B681846BD46FF
:100400005DF8047B704700BF8843FF1F80B483B052
:1004100000AF7860034A7B6813600C37BD465DF817
:10042000047B70478C43FF1F80B400AF034B1B68F5
:100430001846BD465DF8047B704700BF8C43FF1F24
:1004400080B400AF034B00221A60BD465DF8047B08
:10045000704700BF8C43FF1F80B400AFBD465DF8FE
:10046000047B704780B500AF04F088F880BD00BF02
:1004700080B500AF04F096F880BD00BF80B582B0B3
:1004800000AF0123FB71FFF7F3FF064807F02EF9D9
:100490000346FB71FB79002B01D1FFF7E3FF08371F
:1004A000BD4680BDAC47FF1F80B500AF00F06CF8C3
:1004B000114B1B78002B10D000F07CF800F038F9BD
:1004C00000F01EFA0D4B1B78002B05D000F078FBD6
:1004D0000A4B00221A700EE00DE0074B1B7883F0E8
:1004E0000103DBB2002B06D000F01CF900F0EEF89F
:1004F000024B01221A7080BDD048FF1F1088FE1FDA
:1005000080B400AF1D4B1B7883F00103DBB2002BDE
:100510000ED01B4BDB78002B0AD0194B1B79002B1C
:1005200006D0184B0122DA70164B01221A7120E016
:10053000134BDB7883F00103DBB2002B0DD0104BA3
:100540001B7983F00103DBB2002B06D00D4B002298
:10055000DA700C4B00221A710BE0084B1B78002B51
:1005600007D0074BDA78074BDA70054B1A79054B41
:100570001A71BD465DF8047B704700BFD048FF1F6D
:10058000A848FF1FB447FF1F80B500AF074B1A787C
:10059000074B1A70054B5A78054B5A70034B9A78E3
:1005A000034B9A70FFF7ACFF80BD00BFA848FF1F48
:1005B000B447FF1F80B500AF394BDA78394B9A71D9
:1005C000374B1A79374BDA71374B5A78354B5A72A9
:1005D000354B9A78334B1A72344B9A79314B9A7265
:1005E000334B1B68DB78C3F30013DBB2002B14BF63
:1005F00001230023DAB22B4B1A7300F0D5FA03461D
:10060000002B14BF01230023DAB2264B9A73294B27
:100610001B689B7803F00803DBB2002B07D1254B46
:100620001B689B7803F00403DBB2002B01D001238D
:1006300000E0002303F00103DAB21A4BDA731E4B19
:100640001A681A4B1B7A83F00103DBB203F0010333
:10065000D9B2537961F3C3035371184B5B78002B04
:1006600014BF01230023DBB283F00103DBB203F0EC
:100670000103DAB2124B9A70124B1B88092B08D96E
:10068000114B1A680E4B9978137861F3410313707C
:1006900005E00D4B1A6813786FF34103137080BDAA
:1006A000A848FF1F7848FF1FB447FF1F4848FF1F97
:1006B0000488FE1F1888FE1F0888FE1FEC47FF1FD6
:1006C0002C48FF1F2E52FF1F0C88FE1F80B400AF66
:1006D000124B00229A71114B0022DA710F4B00224B
:1006E0001A720E4B00225A720C4B00229A720B4B5C
:1006F0000022DA72094B00225A73084B00229A73C7
:10070000064B0022DA73064B1A6853796FF3041311
:100710005371BD465DF8047B704700BF7848FF1FEA
:100720000888FE1F80B400AFBD465DF8047B7047AB
:1007300080B500AF274B9B7A012B27D1264B1B7826
:1007400083F00103DBB2002B14D0244B5B79002B28
:1007500010D0234B1B780133DAB2214B1A70204B97
:100760001B78032B02D11E4B00221A701A4B012258
:100770001A700AE0194B5B7983F00103DBB2002B9E
:1007800003D0154B00221A7007E006E0154B032238
:100790001A70134B00221A7000BF0E4B9B7A002B6D
:1007A00007D00F4B1B78C3F10303DAB20D4B1A705D
:1007B00005E00C4B03221A70094B00221A70084BFB
:1007C0001B78184600F010F8054B1B78184600F00F
:1007D00025F880BD4848FF1F9443FF1F6048FF1F56
:1007E0009543FF1F1188FE1F80B483B000AF0346FE
:1007F000FB71084B5B7883F00103DBB2002B03D065
:10080000054B1B68FA791A700C37BD465DF8047BFE
:10081000704700BFB048FF1F0088FE1F80B582B040
:1008200000AF0346FB71FB79184600F003F8083768
:10083000BD4680BD80B483B000AF0346FB710B4B57
:100840005B7883F00103DBB2002B09D0084B1A68F8
:10085000FB7903F00703D9B2137861F384031370B3
:100860000C37BD465DF8047B704700BFB048FF1FE2
:100870001888FE1F80B400AF1D4B1B7883F0010366
:10088000DBB2002B26D01B4B9B79002B22D01A4BBE
:100890009B7A002B14BF01230023DBB283F00103FA
:1008A000DBB203F00103DAB2134B9A72104B012250
:1008B0001A70124B1A68104B997A937861F382037D
:1008C00093700E4B1A680C4B997A937861F3C303BB
:1008D000937009E0074B9B7983F00103DBB2002B97
:1008E00002D0034B00221A70BD465DF8047B7047AE
:1008F0009643FF1F6048FF1FB447FF1F1888FE1F65
:1009000080B500AFFFF7B6FF80BD00BF80B400AF79
:10091000BD465DF8047B704780B500AF0A4B5B783D
:10092000002B04D000F012F800F042F80AE0064B69
:100930005B7883F00103DBB2002B03D000F020F8DA
:1009400000F044F880BD00BFD048FF1F80B400AF66
:10095000094B5A7A094B1A71074B9A7A074BDA708E
:10096000054BDA7A054B5A70034B1A7B034B9A708E
:10097000BD465DF8047B70474848FF1F0848FF1FCD
:1009800080B400AF094B01221A71084B0022DA70C3
:10099000064B00225A70054B00229A70034B00222E
:1009A0001A70BD465DF8047B704700BF0848FF1F02
:1009B00080B400AF034BDA7A034B9A70BD465DF802
:1009C000047B70474848FF1FB048FF1F80B400AF4A
:1009D000034B00229A70BD465DF8047B704700BF50
:1009E000B048FF1F80B500AFFFF736FD00F0DCF820
:1009F0000346002B14BF01230023DAB22A4B9A705E
:100A00002A4B1A78284B1A70294B1B7A002B03D1DA
:100A1000274B5B79002B01D0012300E0002303F07A
:100A20000103DAB2234B83F825201F4B9B7883F018
:100A30000103DBB2002B04D01C4B5A781A4B5A70BE
:100A400002E0194B00225A70174B1B78002B03D180
:100A5000154B5B78002B0FD0154B9B7C002B14BFE4
:100A600001230023DBB283F00103DBB203F00103B7
:100A7000DAB2114B5A7002E00F4B00225A700A4B47
:100A80005B78002B09D0084B1B7883F00103DBB2A5
:100A9000002B02D0044B01221A7000F00FF8FFF770
:100AA00003FDFFF739FF80BDD048FF1F0851FF1F2E
:100AB0004848FF1FB447FF1FB048FF1F80B582B0F2
:100AC00000AF00237B60344B5A78344B5A70324B62
:100AD0009A78324B9A70314B00229A712E4B5A7988
:100AE0002E4B5A712C4B5B7883F00103DBB2002B49
:100AF00003D02B4B02225A7002E0294B00225A707D
:100B0000254B9B7883F00103DBB2002B03D0244BF1
:100B100001229A7002E0224B00229A701E4B9B79B0
:100B200083F00103DBB2002B03D01D4B00229A712E
:100B300002E01B4B00229A71174B5B7983F0010393
:100B4000DBB2002B03D0164B08225A7102E0144B83
:100B500000225A7120237B6000F026F80346002B08
:100B60000CD00F4B00225A700D4B00229A700C4B88
:100B700000229A710A4B00225A7104E000237B6024
:100B8000084B00221A70074B1B78002B01D0002362
:100B90007B600837BD4680BDBC48FF1F3448FF1F3F
:100BA000E048FF1F5D48FF1F80B400AF034B9B78F8
:100BB0001846BD465DF8047B704700BF0851FF1F13
:100BC00080B582B000AF0023FB71FB79002B04D10C
:100BD000074807F08FFF0346FB71FB79002B04D118
:100BE000044807F087FF0346FB710837BD4680BD08
:100BF00058390108403B010880B483B000AF7860E9
:100C00000B46FB70FB7801229A407B685A600C37D8
:100C1000BD465DF8047B704780B483B000AF786058
:100C20000B46FB70FB784FF480329A407B685A6029
:100C30000C37BD465DF8047B704700BF0000000024
:100C400080B584B000AF0023FB600023FB720BE093
:100C5000FB7A214A134493F858321A46FB6813442E
:100C6000FB60FB7A0133FB72FB7A312BF0D9FB6816
:100C70001A4AA2FB03231B0918460FF0BBFE0246CB
:100C80000B46104619464FF00002154B0FF028FF97
:100C900002460B461046194610F004FA03467B60E4
:100CA00078680FF0C9FE02460B461046194608A3A5
:100CB000D3E9002310F03EF802460B4610461946D1
:100CC00010F0F0F90246074B1A601037BD4680BDA0
:100CD00014AE47E17A14BE3FB049FF1F1F85EB51A8
:100CE0000000843F9843FF1F90B585B000AF644873
:100CF0000021402210F02DFD62480021402210F01A
:100D000028FD0023FB60ACE00023FB7226E05C4A78
:100D1000FB6852F82330FA7A5B48F968322404FB06
:100D200001F10A44024412781A445549FB6841F81B
:100D30002320544AFB6852F82330FA7A5348F96862
:100D4000322404FB01F10A44024412781A444D494A
:100D5000FB6841F82320FB7A0133FB72FB7A312BCD
:100D6000D5D9474AFB6852F82330494AA2FB0323EE
:100D70001B0918460FF03EFE02460B461046194668
:100D80004FF00002434B0FF0ABFE02460B461046FD
:100D9000194610F087F903467B6078680FF04CFE27
:100DA00002460B461046194631A3D3E900230FF043
:100DB000C1FF02460B46104619462FA3D3E9002374
:100DC0000FF0B8FF02460B461046194610F06AF9BC
:100DD0000146314AFB689B00134419604FF0000341
:100DE0007B60284AFB6852F82330294AA2FB032380
:100DF0001B0918460FF0FEFD02460B461046194629
:100E00004FF00002234B0FF06BFE02460B461046DC
:100E1000194610F047F903467B6078680FF00CFE26
:100E200002460B461046194611A3D3E900230FF0E2
:100E300081FF02460B46104619460FA3D3E9002353
:100E40000FF078FF02460B461046194610F02AF9BB
:100E50000146124AFB689B0013441960FB6801338A
:100E6000FB60FB680F2B7FF74FAF1437BD4690BD7B
:100E70003333333333E36240FCA9F1D24D62403F58
:100E8000D04CFF1F104DFF1FE44DFF1FB049FF1F47
:100E90001F85EB510000843F544DFF1FE848FF1FA2
:100EA00080B582B000AF0346FB71FB79002B0DD0FB
:100EB000FB79012B08D10220062100F0E9F805207A
:100EC000062100F0E5F801E000F006F8FFF70CFF5E
:100ED0000837BD4680BD00BF80B500AF02200621A7
:100EE0000C2200F09BF980BD80B485B000AF0346B2
:100EF000FB807B7B012262F307137B737B7B6FF3A9
:100F0000C3037B73FB88DBB203F00F03DAB2BB8948
:100F100062F3CA13BB813B7B6FF386133B733B7B4E
:100F20006FF345133B733B7B6FF304133B733B7BC6
:100F30006FF303033B73BB8918461437BD465DF856
:100F4000047B704780B58CB000AF03460A46FB7146
:100F50001346BB71FB79052B07D1484BFB62484810
:100F60000021402210F0F5FB09E0FB79022B06D1AD
:100F7000444BFB6244480021402210F0EAFB3C2332
:100F80003B7500237B75FB79052B04D193233B74C0
:100F9000C0237B7406E0FB79022B03D193233B74BF
:100FA00000237B7400233B7300237B73BB79F86AB7
:100FB0001946FFF721FEBB79F86A1946FFF72CFEA8
:100FC0000023BB6202E0BB6A0133BB62BB6A092B30
:100FD000F9DC07F110032D481946022205F0D6FE70
:100FE000BB79F86A1946FFF707FEBB79F86A19461C
:100FF000FFF712FE00237B6202E07B6A01337B6213
:101000007B6A092BF9DC07F11403204819460222F8
:1010100005F0BCFE00233B6202E03B6A01333B6209
:101020003B6A092BF9DCBB79F86A1946FFF7E4FD46
:10103000BB79F86A1946FFF7EFFD0023FB6102E078
:10104000FB690133FB61FB69092BF9DC07F10C0338
:101050000E481946022205F099FE0023BB6102E00A
:10106000BB690133BB61BB69092BF9DCBB79F86A49
:101070001946FFF7C1FD3037BD4680BD00850248E7
:10108000D04CFF1F00820248104DFF1FAC89FE1F8D
:1010900090B58BB000AF03460A46FB711346BB7197
:1010A000102387F82730FA79BB7910461946FFF7E5
:1010B00049FF524B01221A70FB79052B02D1504B8C
:1010C0003B6207E0FB79022B04D14E4B3B620D23C0
:1010D00087F827304C4B1B78312B02D94A4B002222
:1010E0001A704A4B1B78312B02D9484B00221A70D8
:1010F0000023FB617BE00023FB765DE0BB79386A6F
:101100001946FFF779FDBB79386A1946FFF784FD68
:1011100000237B6102E07B6901337B617B69022BE9
:10112000F9DC07F10C033A481946022205F048FEA3
:1011300000233B6102E03B6901333B613B69022BC9
:10114000F9DCBB79386A1946FFF756FDFB79052BA8
:1011500016D1FB7E2C4A127814463A7B1201D1B28A
:101160007A7B1209D2B2D2B20A43D2B2D0B2294AA1
:10117000322101FB03F32344134402461A7018E0A2
:10118000FB79022B15D1FB7E204A127814463A7B5C
:101190001201D1B27A7B1209D2B2D2B20A43D2B2D0
:1011A000D0B21D4A322101FB03F32344134402460B
:1011B0001A70FB7E0133FB76FA7E97F827309A424D
:1011C0009CD3FB79052B06D10F4B1B780133DAB288
:1011D0000D4B1A7008E0FB79022B05D10B4B1B78E5
:1011E0000133DAB2094B1A70FB690133FB61FB6909
:1011F000042B80DD2C37BD4690BD00BF9C43FF1FF4
:1012000000850248008202489D43FF1F9E43FF1F46
:10121000AC89FE1FE44DFF1FB049FF1F80B58EB0A3
:1012200000AF0346FB710B46BB7113467B71FB7924
:10123000052B07D1514B7B637B79514A002142F842
:10124000231009E0FB79022B06D14C4B7B637B79A1
:101250004C4A002142F8231000233B6387E07B794E
:101260009BB21846FFF740FE03463B613B691B12E9
:10127000DBB23B733B69DBB27B73BB79786B19469E
:10128000FFF7BAFCBB79786B1946FFF7C5FC002362
:10129000FB6202E0FB6A0133FB62FB6A102BF9DCA4
:1012A00007F10C0338481946022205F06FFD0023B0
:1012B000BB6202E0BB6A0133BB62BB6A092BF9DC8B
:1012C000BB79786B1946FFF797FC00237B6202E03D
:1012D0007B6A01337B627B6A022BF9DCBB79786B1A
:1012E0001946FFF799FC00233B6202E03B6A013399
:1012F0003B623B6A092BF9DC07F1080322481946D7
:10130000022205F05DFD0023FB6102E0FB69013371
:10131000FB61FB69022BF9DCBB79786B1946FFF79F
:101320006BFC0023BB6102E0BB690133BB61BB699D
:10133000092BF9DCBB79786B1946FFF76DFC0023AC
:101340007B6102E07B6901337B617B69092BF9DCFE
:1013500007F108030C481946022205F031FDBB795C
:10136000786B1946FFF748FC3B6B01333B633B6BE3
:10137000312B7FF774AF3837BD4680BD00820248FD
:10138000D04CFF1F104DFF1FAC89FE1F80B483B0EF
:1013900000AF78600B46FB70FB7801229A407B68B7
:1013A0005A600C37BD465DF8047B704780B483B04B
:1013B00000AF78600B46FB70FB784FF480329A40A8
:1013C0007B685A600C37BD465DF8047B704700BFF0
:1013D00080B582B000AF78607B681A687B681B7C40
:1013E00010461946FFF7D2FF0837BD4680BD00BF43
:1013F00080B582B000AF78607B681A687B681B7C20
:1014000010461946FFF7D2FF0837BD4680BD00BF22
:1014100080B500AF0F4B1B78002B08D000F01CF8F4
:1014200000F062F900F08EF800F094F80CE0094B3F
:101430001B7883F00103DBB2002B05D000F066F9C6
:1014400000F040F800F076F800F0F8F800F046F907
:1014500080BD00BFD048FF1F80B500AF0F480EF021
:1014600043FC0F48FFF7B4FF0E48FFF7B1FF0E48EB
:10147000FFF7AEFF0D48FFF7ABFF0D48FFF7A8FFE2
:101480000C480EF031FD0C480EF02EFD0B48FFF716
:101490009FFF0B480EF028FC80BD00BFC02F010845
:1014A000A8340108A4330108783201086833010820
:1014B000AC350108B442FF1FB842FF1F20350108B8
:1014C000CC2F010880B500AF10480EF00DFC10487D
:1014D000FFF78EFF0F48FFF78BFF0F48FFF788FFDE
:1014E0000E48FFF785FF0E48FFF782FF0D480EF00C
:1014F000BFFC0D480EF0BCFC0C48FFF779FF0C4810
:101500000EF0B6FC01480EF0EFFB80BDDC2F0108A9
:10151000A8340108A43301087832010868330108AF
:1015200020350108B442FF1FB842FF1F6432010892
:10153000C042FF1F80B500AF0148FFF759FF80BDD3
:10154000B432010880B500AF09F0F8F808F09CFD4E
:1015500080BD00BF80B400AF344B1A68344B99791A
:10156000D37861F30003D370304B1A68304BD979CC
:10157000D37861F34103D3702C4B1A682C4B197A42
:10158000D37861F38203D370284B1A68284B597AB9
:10159000D37861F3C303D370244B1A68244B997A30
:1015A000D37861F30413D370204B1A68204B197B56
:1015B000D37861F34513D3701C4B1A681C4BD97A4E
:1015C000D37861F38613D370184B1A68184B597B84
:1015D000D37861F3C713D370144B1A68144B997BFB
:1015E000537961F300035371104B1A68104BD97B88
:1015F000537961F3820353710C4B1A680D4B1B7ABC
:1016000083F00103DBB203F00103D9B2537961F334
:10161000C3035371054B1A68074B9978537961F3EB
:1016200004135371BD465DF8047B70470888FE1FA4
:101630007848FF1F4848FF1F2C48FF1F80B500AFA8
:101640001E480EF051FB1E4B1B78002B03D01D488B
:10165000FFF7BEFE02E01B48FFF7CAFE184B5B789F
:10166000002B03D01848FFF7B3FE02E01648FFF73F
:10167000BFFE134B9B78002B03D01448FFF7A8FE46
:1016800002E01248FFF7B4FE0D4BDB78002B03D0CD
:101690000F48FFF79DFE02E00D48FFF7A9FE084B3B
:1016A0001B79002B03D00B48FFF792FE02E009489C
:1016B000FFF79EFE08480EF017FB80BDEC2F0108D7
:1016C000B447FF1F44340108303401082C330108AB
:1016D000483501081C340108F42F010880B400AF1C
:1016E000BD465DF8047B704780B500AF054B9B7825
:1016F000002B03D004480EF0F7FB02E002480EF086
:10170000B7FB80BDB447FF1FC042FF1F80B500AFCD
:10171000FFF796FA1A4BD3ED007AB2EE097AF4EE9F
:10172000C77AF1EE10FA09D516480EF0DDFB16481F
:10173000FFF74EFE154B01221A7020E0104BD3ED3F
:10174000007AB2EE0B7AF4EEC77AF1EE10FA09DD08
:101750000C480EF08DFB0C48FFF74AFE0B4B0022A5
:101760001A700CE0094B1B7883F00103DBB2002BED
:1017700005D004480EF07CFB0348FFF739FE80BD1E
:101780009843FF1FBC42FF1F283201089F43FF1FE1
:1017900080B483B000AF78600B46FB70FB78012209
:1017A0009A407B685A600C37BD465DF8047B7047F1
:1017B00080B483B000AF78600B46FB70FB784FF4C9
:1017C00080329A407B685A600C37BD465DF8047BD6
:1017D000704700BF80B582B000AF78607B681A6840
:1017E0007B681B7C10461946FFF7D2FF0837BD46C1
:1017F00080BD00BF80B582B000AF78607B681A689A
:101800007B681B7C10461946FFF7D2FF0837BD46A0
:1018100080BD00BF80B500AF0C4B5B78002B06D0BD
:1018200000F016F800F092F800F088F80AE0074B94
:101830005B7883F00103DBB2002B03D000F040F8AB
:1018400000F0F8F800F0CAF980BD00BFD048FF1FD3
:1018500080B500AF10480EF047FB1048FFF7BAFF05
:101860000F48FFF7B7FF0F48FFF7B4FF0E48FFF729
:10187000B1FF0E48FFF7AEFF0D48FFF7ABFF0D4875
:10188000FFF7A8FF0C48FFF7A5FF0C4B1A68137869
:1018900043F08003137080BDC442FF1F343501083C
:1018A0003C320108D03401085433010804330108E4
:1018B00018330108E4340108DC3201081888FE1FDF
:1018C00080B500AF1248FFF795FF1248FFF792FF6F
:1018D0001148FFF78FFF1148FFF78CFF1048FFF703
:1018E00089FF1048FFF786FF0F48FFF783FF0F4877
:1018F000FFF780FF0E48FFF77DFF0E480EF0B8FAA5
:101900000D4B1A6813786FF3C713137080BD00BFB7
:10191000343501083C32010818330108043301084A
:10192000E434010854330108D03401085834010864
:10193000DC320108C442FF1F1888FE1F80B500AFCB
:1019400008F008FD09F096FA80BD00BF80B500AF31
:1019500000F002F880BD00BF80B500AF00F0A0F835
:101960002E4B5B78002B53D02D4B1B88002B4FD177
:101970002C4BDB78002B12D02B4B1B78002B0AD082
:101980002A4B1A681378012161F301031370284B65
:101990001B6800221A70244B00221A7037E0214B7A
:1019A0005B78002B12D0204B1B78002B0AD01F4BEA
:1019B0001A681378022161F3010313701C4B1B6832
:1019C00003221A70184B00221A7020E0154B9B78E6
:1019D000002B0AD0154B1A6813786FF301031370AC
:1019E000134B1B6802221A7011E00E4B1B79002B5F
:1019F0000DD00E4B1A6813786FF3010313700C4B64
:101A00001B6801221A70084B01221A7003E002E0E1
:101A1000054B00221A7000F0E9F980BDB048FF1FA5
:101A20001648FF1F0848FF1FA043FF1F1888FE1F0E
:101A30001488FE1F80B500AF00F002F880BD00BF23
:101A400080B400AF144B1A6813786FF3010313705E
:101A5000114B1B684FF0FF325A709A7842F0030224
:101A60009A700D4B1B689A7802F00F029A70002250
:101A7000DA701A7922F001021A71074B1A6813788A
:101A80006FF3C7131370054B1B6801221A70BD4614
:101A90005DF8047B704700BF1888FE1F1488FE1F86
:101AA00080B400AF464B1B6805221A70444B1A687D
:101AB0005378012161F301035370414B1A68414B84
:101AC0001B88DBB203F07F03D9B2937861F306037E
:101AD00093703B4B1B683C4A1288C2F3090292B2D6
:101AE000D1B200200143D970120A92B202F003026F
:101AF00002F003001A7922F00302114602460A435B
:101B00001A71324B1B68324A126892B2C2F30C024D
:101B100092B2D1B2002001431970120A92B202F0BF
:101B20001F0202F01F005A7822F01F0211460246DF
:101B30000A435A70254B1B68264A126892B252011A
:101B400012B2521192B2D1B2002001439970120A1E
:101B500092B202F0070202F00700DA7822F00702E0
:101B6000114602460A43DA70184B1B68002262F0E5
:101B70003D021A715A7922F0070242F001025A71AD
:101B8000124B1B68144A1288524292B292B252010E
:101B900012B2521192B2D1B2002001439971120ACD
:101BA00092B202F0070202F00700DA7922F007028F
:101BB000114602460A43DA71BD465DF8047B704760
:101BC0001C88FE1FCC48FF1FC448FF1F2488FE1F2F
:101BD000DC48FF1F1C48FF1F2448FF1F80B500AFD3
:101BE000074B5B78002B0AD0054B9B78002B03D06A
:101BF0000448FFF7EFFD02E00248FFF7FBFD80BD60
:101C0000B048FF1F5834010880B483B000AF78603B
:101C10000B46FB70FB7801229A407B685A600C37B8
:101C2000BD465DF8047B704780B483B000AF786038
:101C30000B46FB70FB784FF480329A407B685A6009
:101C40000C37BD465DF8047B704700BF80B582B09D
:101C500000AF78607B681A687B681B7C1046194669
:101C6000FFF7D2FF0837BD4680BD00BF80B582B008
:101C700000AF78607B681A687B681B7C1046194649
:101C8000FFF7D2FF0837BD4680BD00BF80B500AF6B
:101C900000F078F80120FFF703F900F09FF8FFF754
:101CA000B7FBFFF7B7FD00F005F800F023F800F0F0
:101CB00045F880BD80B500AF0B4B5B78002B09D099
:101CC0000A48FFF7C3FF0A4B1A68137843F0400332
:101CD000137008E00548FFF7C9FF054B1A68137831
:101CE0006FF38613137080BDB048FF1FE033010807
:101CF0002C88FE1F80B400AF0D4B1A680D4B59782D
:101D0000137861F345131370094B1A680A4B93F863
:101D1000253083F00103DBB203F00103D9B213785D
:101D200061F386131370BD465DF8047B704700BFF6
:101D30001888FE1FB048FF1FB447FF1F80B500AFD3
:101D40000E4B9B7883F00103DBB2002B0DD10B4BC4
:101D50005B7883F00103DBB2002B06D1074B5B7984
:101D600083F00103DBB2002B03D005480EF0BCF872
:101D700002E003480EF07CF880BD00BF3448FF1F2E
:101D8000C842FF1F80B500AF0948FFF75FFF094851
:101D9000FFF75CFF0848FFF759FF0848FFF756FFB9
:101DA0000748FFF753FF0748FFF750FF80BD00BF0C
:101DB000B036010890330108F433010828320108D5
:101DC00050320108AC35010880B500AFFEF7ECFEDB
:101DD0000346002B01D008F08DF880BD80B500AF20
:101DE000FFF7F2FF07F072FA80BD00BF80B400AFCA
:101DF000094B1B78092B08D8084B1A681378032164
:101E000061F384031370002300E001231846BD46EC
:101E10005DF8047B704700BF0448FF1F1888FE1F51
:101E200098B500AF054A4FF0005314460FCB84E835
:101E30000F0006F0EFFB06F057FC98BDC4FF03202F
:101E400080B584B000AF2F4BDB6803F48033002BE8
:101E50003ED02D4BDB6803F00103002B02D02B4B4F
:101E6000FB6002E006F036FCF860274B1B6803F0CD
:101E70000403002B20D0244B9B6803F070631B0EDF
:101E80000133BB60204B9B6803F4FE431B0A013304
:101E90007B601D4B9B6803F4FE031B0C01333B600E
:101EA000BB683A6802FB03F3FA68B2FBF3F37A68A3
:101EB00002FB03F3FB600DE0134B9B6803F07F0311
:101EC00001333B60FA683B68B2FBF3F3FB6001E06F
:101ED0000E4BFB600B4BDB68DBB20133FA68B2FBE5
:101EE000F3F3FB60074B1B6903F001030133FA684E
:101EF000B2FBF3F3FB60064AFB6813601037BD4684
:101F000080BD00BF004600501047005000366E01F3
:101F1000C0FF032080B485B000AFF8600B467A6044
:101F2000FB72FB7A9B08DBB21846FB7A9B08DBB29C
:101F30001A46FB68043253F82220FB7A03F00303AD
:101F4000DB001946F8238B40DB4302EA0301FB6800
:101F5000021D43F82210FB685A6FFB7A5B0019469A
:101F600003238B40DB431A40FB685A67FB683A4AFD
:101F7000934203D0FB68394A93420AD1FB681A6E38
:101F8000FB7A012101FA03F3DB431A40FB681A666E
:101F900042E07B681B78DBB25BB2002B3CDA7B68EB
:101FA0005A68FB7A9A40FB685A60FB7ADB08DBB21E
:101FB0001846FB7ADB08DBB21A46FB68103253F88E
:101FC0002220FB7A03F007039B00194607238B406E
:101FD000DB4302EA0301FB6800F1100243F8221020
:101FE000FB7ADB08DBB21846FB7ADB08DBB21A4669
:101FF000FB68103253F822207B681B7A1946FB7A63
:1020000003F007039B0001FA03F342EA0301FB68B4
:1020100000F1100243F82210FB7A9B08DBB218464D
:10202000FB7A9B08DBB21A46FB68043253F8222085
:102030007B681B781946FB7A03F00303DB0001FA87
:1020400003F342EA0301FB68021D43F82210143730
:10205000BD465DF8047B7047008E0248008F024841
:1020600080B400AF064B5B6803F00103002B14BF84
:1020700001230023DBB21846BD465DF8047B7047A0
:10208000004A005080B400AF034BD3F8C430184668
:10209000BD465DF8047B70470040005080B582B0BB
:1020A00000AF7860FFF7DCFF034683F00103DBB28B
:1020B000002B3ED000F0D0FB034683F00103DBB2DF
:1020C000002B01D000F09CFB7B681B8A184602F0B5
:1020D0007DFA00BFFFF7D6FF034603F40063002B31
:1020E000F8D1164A7B681B68136200BFFFF7CAFF6E
:1020F000034603F48053002BF8D1104A7B685B68D9
:10210000536200BFFFF7BEFF034603F40073002BCA
:10211000F8D10A4A7B689B68936100BFFFF7B2FF62
:10212000034603F48063002BF8D1044A7B68DB6824
:10213000D361002318460837BD4680BD004A0050D1
:1021400080B582B000AF786000BFFFF79BFF034609
:1021500003F48043002BF8D10449044B1A697B68CF
:1021600013430B610837BD4680BD00BF004A0050D5
:1021700080B400AF034B1B681846BD465DF8047B76
:10218000704700BFC0FF032080B400AF034BD3F8FB
:10219000C4301846BD465DF8047B704700400050CF
:1021A00080B584B000AF7860FFF74AFE0B4B1B6828
:1021B0000B4AA2FB03239A0C7B6802FB03F37B60B0
:1021C0000023FB6003E000BFFB680133FB60FA689B
:1021D0007B689A42F7D31037BD4680BDC0FF03200D
:1021E00083DE1B4380B483B000AF78600549054BA4
:1021F0009A687B6813438B600C37BD465DF8047B9F
:10220000704700BF7440005080B400AF034B5B6860
:102210001846BD465DF8047B704700BF744000500F
:1022200080B483B000AF7860034A7B68D3600C371A
:10223000BD465DF8047B704774400050B0B584B073
:1022400002AF7860002000F0D7F800F0D9FA7B6880
:10225000DB79002B0AD000F02FFB00BF00F01AFB47
:10226000034683F00103DBB2002BF7D17B685B7A76
:10227000184600F03BF900BFFFF786FF0346002B2E
:10228000FAD17B681B7A184600F094FA7B681B7CB5
:10229000184600F049F97B685B7C184600F06CF941
:1022A0007B689B7C184600F053F97B68DB7C184602
:1022B00000F076F97B689B79002B0AD000F034FBA4
:1022C00000BF00F059FB034683F00103DBB2002B93
:1022D000F7D17B68DB78002B09D17B689B7983F091
:1022E0000103DBB2002B17D000F06AFB14E000F012
:1022F00057FB7B6899887B68DA787B685B781D463A
:102300007B681B781C467B689B78009308461146C7
:102310002A46234600F064FB7B68DB68B3F5803F08
:1023200003D14FF4803000F067F8FFF789FD0837DC
:10233000BD46B0BD80B483B000AF78600549054BA1
:102340005A697B6813434B610C37BD465DF8047BCB
:10235000704700BF7440005080B485B000AF786013
:102360007B681B0FFB607B6823F07043BB60FA68DF
:1023700013465B0013449B001A46044B1344BA688F
:102380001A601437BD465DF8047B70471444005052
:1023900080B485B000AF78607B681B0FFB607B6802
:1023A00023F07043BB60FA6813465B0013449B0044
:1023B0001A46084B13441A68BB681340002B14BF1D
:1023C00001230023DBB218461437BD465DF8047BB9
:1023D000704700BF0C44005080B500AFFFF7C8FE47
:1023E0000246044B5B6903F0010322FA03F318462B
:1023F00080BD00BF0046005080B483B000AF78605D
:102400000649064BDB6823F480327B681343CB60BC
:102410000C37BD465DF8047B704700BF0046005096
:1024200080B483B000AF78600649064B9B6923F403
:1024300080327B6813438B610C37BD465DF8047BAB
:10244000704700BF0046005080B483B000AF786092
:102450000649064B5B6A23F440327B6813434B62A8
:102460000C37BD465DF8047B704700BF0046005046
:1024700080B483B000AF0346FB80FB88002B08D1FB
:102480000A4A0A4BDB6823F4807323F00103D3600C
:1024900007E0064A054BDB6843F4807343F0010311
:1024A000D3600C37BD465DF8047B70471047005081
:1024B00080B483B000AF0346FB7100BF094BD3F873
:1024C000C43003F00803002BF8D10749064BDB6842
:1024D00023F04002FB791343CB600C37BD465DF817
:1024E000047B7047004000500043005080B483B02C
:1024F00000AF0346FB7100BF094BD3F8C43003F0B3
:102500000803002BF8D10749064BDB6823F0800253
:10251000FB791343CB600C37BD465DF8047B7047F5
:10252000004000500043005080B483B000AF78609A
:102530000649064BDB6823F0FF027B68013B13432F
:10254000CB600C37BD465DF8047B704700460050F9
:1025500080B483B000AF78600649064B1B6A23F055
:1025600001027B68013B13430B620C37BD465DF8EB
:10257000047B70470046005080B483B000AF7860A1
:102580000649064B1B6923F001027B68013B13439C
:102590000B610C37BD465DF8047B70470046005068
:1025A00080B483B000AF78600649064B5B6923F0C6
:1025B00001027B68013B13434B610C37BD465DF85C
:1025C000047B70470046005080B483B000AF786051
:1025D0000649064B9B6923F007027B68013B1343C6
:1025E0008B610C37BD465DF8047B70470046005098
:1025F00080B483B000AF78600649064BDB6923F0F6
:102600003F027B68013B1343CB610C37BD465DF84D
:10261000047B70470046005080B483B000AF786000
:102620000649064B5B6A23F0FF027B68013B1343BC
:102630004B620C37BD465DF8047B70470046005086
:1026400080B483B000AF0346FB71044AFB7953604A
:102650000C37BD465DF8047B704700BF0046005054
:1026600080B485B000AF78607B681B0FFB607B682F
:1026700023F07043BB60FA6813465B0013449B0071
:102680001A46044B1344BA681A601437BD465DF805
:10269000047B70474846005080B485B000AF786036
:1026A0007B681B0FFB607B6823F07043BB60FA689C
:1026B00013465B0013449B001A46084B13441A68E8
:1026C000BB681340002B14BF01230023DBB2184664
:1026D0001437BD465DF8047B704700BF404600508C
:1026E00080B400AF054A054B5B6923F4803323F0C7
:1026F00002035361BD465DF8047B704710470050EC
:1027000080B483B000AF78603960284A274B5B699A
:1027100043F00103536100BF244B1B6903F0010325
:10272000002BF9D0214A214B5B6943F01003536120
:102730001E493B68013B1A027B68013B1B061343A1
:102740004B611A4A194B5B6943F040035361174AC6
:10275000164B5B6923F010035361144A134B5B69FA
:1027600043F48023536100BF104B1B6903F0040343
:10277000002BF9D00D4A0D4B5B6923F00103536127
:1027800000BF0A4B1B6903F00103002BF9D1074A74
:10279000064B5B6923F040035361054B0822DA6066
:1027A0000C37BD465DF8047B704700BF10470050F2
:1027B0006041005080B582B000AF0346FB710F4A04
:1027C0000E4B5B6843F480135360FB79012B0ED1F1
:1027D0000A4A0A4B5B6823F4801353606420FFF7B6
:1027E000DFFC064A054B5B6843F40023536064201A
:1027F000FFF7D6FC0837BD4680BD00BF104700502C
:1028000080B400AF124B1B6803F00103002B09D109
:102810000F4B01225A6000BF0D4B1B6803F00103F0
:10282000002BF9D00B4B1B6803F40073002B0AD06C
:10283000084B4FF400729A6000BF064B1B6803F40C
:102840000073002BF9D1BD465DF8047B704700BFD3
:10285000004200500044005080B400AF0B4B1B6896
:1028600003F00103002B07D0094B1B6803F400732E
:10287000002B01D1012300E0002303F00103DBB2B0
:102880001846BD465DF8047B704700BF004200500B
:102890000044005080B400AF064B1B6803F00803EF
:1028A000002B0CBF01230023DBB21846BD465DF8A8
:1028B000047B70470043005080B500AF4FF4000028
:1028C000FFF7AEFC174A174BDB6923F03003D361E7
:1028D00000BFFFF799FC034603F40003002BF8D078
:1028E0004FF40030FFF79CFC0E4B08225A6000BFEB
:1028F000FFF78AFC034603F40033002BF8D04FF4B3
:102900000020FFF78DFC074A064BDB6843F0080305
:10291000D36000BFFFF778FC034603F40023002BCD
:10292000F8D080BD00430050B0B500AF0F4A0F4B48
:102930005B6823F4803353600D4D0D4B5B6823F4CB
:10294000702424F0300405F0C5FE0246094BA3FBB9
:1029500002231B0D013B1B0423436B60034A034B03
:102960005B6823F400335360B0BD00BF10470050D4
:10297000004700506BCA5F6B80B400AF074B1B6809
:1029800003F46073B3F5607F0CBF01230023DBB257
:102990001846BD465DF8047B704700BF10470050E5
:1029A00080B400AF054A054B5B6823F4803323F005
:1029B00002035360BD465DF8047B7047104700502A
:1029C00080B400AF054A054B5B6843F4803343F0A5
:1029D00002035360BD465DF8047B7047104700500A
:1029E00080B586B000AFBA607B600346FB810B46C2
:1029F0007B73FB891846FFF73BFD7B7B012B40F087
:102A00008B80FB89002B09D105F064FE0246544BF4
:102A1000A3FB02239B0C9B057B6102E04FF0C0638C
:102A20007B617B697A6802FB03F2BB68B2FBF3F35C
:102A30007B617B694B4AA2FB03231B099B0D3B6116
:102A4000494A494B5B6843F00103536000BF464B62
:102A50001B6803F00103002BF9D0434A424B5B682B
:102A600043F01003536040493F4B9A683F4B13407B
:102A70007A68013A12021A433B69013B1B041A436C
:102A8000BB68013B1B0613438B60374A364B5B68C0
:102A900043F040035360344A334B5B6823F0100328
:102AA0005360314A304B5B6843F48023536000BF6E
:102AB0002D4B1B6803F00403002BF9D02A4A2A4B44
:102AC0005B6823F00103536000BF274B1B6803F0D2
:102AD0000103002BF9D17B69254AA2FB03235B0983
:102AE0009B0D3B613A6A3B699A4202D2386900F019
:102AF00045F87B695B081F4AA2FB03235B099B0D1A
:102B00003B613A6A3B699A4202D2386900F036F872
:102B1000386A00F033F81CE01349134B9B6823F02C
:102B20007F023B6A013B13438B6000BF0E4B1B6867
:102B300003F01003002BF9D00B4A0B4B5B6843F0FA
:102B40000103536000BF084B1B6803F00103002B17
:102B5000F9D0094B0522DA601837BD4680BD00BFA9
:102B600083DE1B43ABAAAAAA10470050FF8080F067
:102B700089888888B7600BB66041005080B582B004
:102B800000AF78600B490B4B9B6823F4FE027B6817
:102B9000013B1B0413438B6000BF064B1B6803F013
:102BA0002003002BF9D03220FFF7FAFA0837BD4690
:102BB00080BD00BF1047005080B483B000AF786084
:102BC0007B68D3F8C43103F44073002B0CBF01239E
:102BD0000023DBB218460C37BD465DF8047B704716
:102BE00080B483B000AF7860084611461A460346A9
:102BF000FB700B46BB7013467B70FA78BB781B04E6
:102C000003F47F031A437B781B061A437B68C3F8DF
:102C1000C4210C37BD465DF8047B704780B483B097
:102C200000AF78607B681B6843F040027B681A60E5
:102C30000C37BD465DF8047B704700BF80B483B09D
:102C400000AF78607B681B6823F040027B681A60E5
:102C50000C37BD465DF8047B704700BF80B483B07D
:102C600000AF786039603A687B68934238BF13469A
:102C700018460C37BD465DF8047B704780B483B0BE
:102C800000AF786039603A687B68934228BF13468A
:102C900018460C37BD465DF8047B704780B588B098
:102CA00000AF786039603B681B683A685268B3FBD4
:102CB000F2F102FB01F29B1A002B40F090800023FE
:102CC000FB610023BB613B681A683B685B68B2FB31
:102CD000F3F3BB6019237B6100233B610023FB609E
:102CE0004BE0BB687A69B3FBF2F2796901FB02F24F
:102CF0009B1A002B3ED10023BB61BA687B69B2FBF3
:102D0000F3F3FB61FB69002B34D0FB69B3F5007F63
:102D100030D8FB693F2B0AD9FB6903F00703002B6E
:102D200003D07B69013B7B6127E00123BB617B69A9
:102D3000013B3A68128902FB03F32B4AA2FB0323EF
:102D40005B0B3B617A693B69D31A013BFB603B69D2
:102D5000022B0FD93B690F2B0CD8FB68012B09D92B
:102D6000FB68062B06D83B685B891A46FB689A42CB
:102D700000D805E07B69013B7B617B69072BB0D8FC
:102D80007B69072B2BD97868FFF748FFFB68013B6D
:102D90001B0303F4E0423B685B89013B9B01DBB210
:102DA0001A433B69013B1B0203F4706342EA0301CF
:102DB000BA6913465B0013441A46FB69D340013BD2
:102DC00003F03F0341EA0302BB69DB039BB21A43F2
:102DD0007B681A617868FFF731FF002300E0012368
:102DE00018462037BD4680BD5917B7D180B582B08F
:102DF00000AF78600B46FB701346BB7000BF78686D
:102E0000FFF7DAFE034683F00103DBB2002BF6D1B5
:102E1000FB780133DBB2BA7878680221FFF7E0FE75
:102E20000837BD4680BD00BF80B582B000AF786076
:102E30000A48FFF715FC0948FFF78EFA7B681B6804
:102E400023F001027B681A6000BF7B681B6803F0F7
:102E50000203002BF9D10837BD4680BD10000010D9
:102E600080B483B000AF78600B46FB707B68D3F80A
:102E7000C83123F00F02FB781A437B68C3F8C821DE
:102E80000C37BD465DF8047B704700BF80B483B04B
:102E900000AF78607B68D3F8C831DBB203F00F0372
:102EA000DBB218460C37BD465DF8047B704700BFA7
:102EB00080B584B000AF78600023FB607868FFF7CE
:102EC000E5FF0346012B02D0022B04D007E0FFF7F9
:102ED00083FAF86003E005F0FDFBF86000BFFB68D3
:102EE00018461037BD4680BD80B588B000AFF86089
:102EF0000B467A60FB72F868FFF796FFFB7AF8687A
:102F00001946FFF7ADFFF868FFF7D2FFF861FA69DD
:102F10007B68B2FBF3F3C3F5806300201946FFF72B
:102F20009DFE0346184640F2FF31FFF7A7FEB86149
:102F3000BB69C3F58063FA69B2FBF3F37B61FB689D
:102F4000DB6823F4434323F0FF03FA68D360FB6894
:102F5000DA68BB69134343F48042FB68DA607B693B
:102F600018462037BD4680BD80B586B000AF78607A
:102F70007B681B6803F13843A3F5A8335B097B61C9
:102F80007B695B095A037B6903F01F031B02134330
:102F90003B617B681B687A681268926822F47F4202
:102FA0009A607B681B687A68126891683A690A437C
:102FB0009A607B68DB7903F02003DBB2002B07D03B
:102FC0007B68DB7903F02003DBB2002B00D160E0EB
:102FD0007B681B7E002B04D07B681B7E012B00D0FE
:102FE00057E07B681B682022DA617B68DB7903F09D
:102FF0002003DBB2002B28D17B685B68FB60FB6899
:1030000003F06043FB607B685B68C3F31C039B04B5
:103010001A46FB681343FB607B681B68FA689A6179
:103020007B689B68FB60FB6803F06043FB607B6828
:103030009B68C3F31C039B041A46FB681343FB60A5
:103040007B681B68FA68DA6009E07B681B687A684D
:1030500052689A617B681B687A689268DA607B685C
:103060001B7E012B0CD1786800F01AF87B681B6876
:103070004FF00062DA617B681B68074ADA6108E09A
:103080007B681B684FF40062DA617B681B68034A47
:10309000DA611837BD4680BDC00020064006A0009A
:1030A00080B485B000AF78600323FB737B681B7E20
:1030B000012B22D17B681B682022DA617B681B68A8
:1030C0007A681268126822F070617A68127B1206C0
:1030D00002F070620A431A607B681B687A681269A2
:1030E0001A617B681B687A6852695A617B681B6841
:1030F000064ADA610023FB7301E00323FB73FB7BC9
:1031000018461437BD465DF8047B70474000280020
:1031100080B487B000AF78600123FB757B681B68C3
:10312000DB6903F020035B093B617B681B68DB699B
:1031300003F480731B0AFB603B69002B02D104235C
:10314000FB750CE0FB68012B02D10223FB7506E046
:103150007B681B684FF0E062DA610023FB75FB7D42
:1031600018461C37BD465DF8047B704780B487B0B5
:1031700000AF78600123FB750023BB7500237B75CE
:103180007B681B68DB6903F40063DB0A3B617B68D7
:103190001B68DB6903F004039B08FB603B69002BA1
:1031A00002D00323FB75A7E0FB68012B02D10223A9
:1031B000FB75A1E07B681B680822DA617B681B68ED
:1031C0009B6903F000535B0F002B40D17A68D379E1
:1031D0006FF34513D3717B681B689A694A4B1340A0
:1031E0009B0C23F060417A68536861F31C035360C1
:1031F0007B681B68DB6803F000535B0FDBB203F0F6
:103200000103D9B27A68D37A61F34513D3727B682C
:10321000DB7A03F02003DBB2002B0DD07B681B6848
:10322000DA68394B13409B0C23F060417A6893684D
:1032300061F31C03936032E07B681B68DB6823F05A
:1032400060417A68936861F31C03936027E07A68B1
:10325000D37943F02003D3717B681B689B6923F00B
:1032600060417A68536861F31C0353607B681B6894
:10327000DB6823F060417A68936861F31C03936014
:103280007B681B68DB6803F000535B0FDBB203F065
:103290000103D9B27A68D37A61F34513D3727B689C
:1032A0001B681B6803F070631B0EDAB27B681A732D
:1032B0007B681B681A697B681A617B681B685A699E
:1032C0007B685A617B681B68DB6903F004039B0819
:1032D000BB757B681B68DB6903F00803DB087B7543
:1032E000BB7D002B03D07B7D002B7FF463AF7B681D
:1032F00000221A760023FB75FB7D18461C37BD465D
:103300005DF8047B704700BF0000FC1F80B483B0F1
:1033100000AF786039603B68B3F5800F06D07B68FA
:103320001A683B681A437B681A6005E07B689A69F3
:103330003B681A437B689A610C37BD465DF8047B95
:10334000704700BF80B483B000AF78607B684FF4F3
:103350008072DA600C37BD465DF8047B704700BFB1
:1033600080B582B000AF78607B68104A934203D189
:103370000420FEF7F1FF16E07B680D4A934203D16B
:103380000820FEF7E9FF0EE07B680A4A934203D16A
:103390001020FEF7E1FF06E07B68074A934202D166
:1033A0000648FEF7D9FF0837BD4680BD00C0004083
:1033B00000000140004001400040004801000010B2
:1033C00080B582B000AF78607B68104A934203D129
:1033D0000420FFF745F916E07B680D4A934203D1BC
:1033E0000820FFF73DF90EE07B680A4A934203D1BB
:1033F0001020FFF735F906E07B68074A934202D1B7
:103400000648FFF72DF90837BD4680BD00C00040D3
:103410000000014000400140004000480100001051
:1034200080B582B000AF78601020FFF709F97868A6
:10343000FFF7C6FF7868FFF793FF0837BD4680BDEA
:1034400080B584B000AF78600B46FB707868FFF7FA
:10345000E7FF7868FFF776FF7B681B68FB60FB6817
:1034600023F44043FB60FB789B03FA681343FB6043
:103470007B68FA681A601037BD4680BD80B483B09F
:1034800000AF786039603B681A687B685A613B68B6
:103490005B79C3F34013DBB21A057B685A603B6863
:1034A0001B79C3F30303DBB21A467B685A623B689D
:1034B0005B79C3F30303DBB21A467B681A623B688D
:1034C0005B79C3F30013DBB21A467B689A613B68F1
:1034D0001B79C3F30313DBB21A467B68DA620C373D
:1034E000BD465DF8047B704780B485B000AF78605E
:1034F0000B46FB707B689B6AFB60FB6823F4706380
:10350000FB60FB781B02FA681343FB607B68FA6878
:103510009A62FA787B685A621437BD465DF8047B7C
:10352000704700BF80B483B000AF78607B684FF411
:103530008072DA600C37BD465DF8047B704700BFCF
:1035400080B483B000AF78607B6801221A610C37C9
:10355000BD465DF8047B704780B582B000AF7860EF
:103560007B68094A934203D18020FEF7F5FE07E00D
:103570007B68064A934203D14FF48070FEF7ECFE5D
:103580000837BD4680BD00BF000002400040024039
:1035900080B582B000AF78607B68094A934203D15E
:1035A0008020FFF75DF807E07B68064A934203D16D
:1035B0004FF48070FFF754F80837BD4680BD00BF58
:1035C000000002400040024080B582B000AF786049
:1035D0001020FFF735F87868FFF7DAFF7868FFF713
:1035E000BBFF0837BD4680BD80B584B000AF7860B2
:1035F0000B46FB707868FFF7E7FF7868FFF792FFEC
:103600007B681B68FB60FB6823F44043FB60FB782E
:103610009B03FA681343FB607B68FA681A601037F3
:10362000BD4680BD80B582B000AF786039607868F3
:10363000FFF786FF3B681A687B685A613B685B7BD3
:10364000C3F30013DBB21A057B685A603B681B7B2F
:10365000C3F30303DBB21A467B685A623B681B7BE9
:10366000C3F30313DBB21A467B68DA623B685B7B09
:10367000C3F30303DBB21A467B681A623B685A68DD
:103680007B689A613B689B6883F014027B689A644C
:103690000837BD4680BD00BF80B483B000AF7860FE
:1036A0000B467B807A887B685A630C37BD465DF891
:1036B000047B704780B485B000AF78600B46FB7028
:1036C0007B689B6AFB60FB6823F47063FB60FB789C
:1036D0001B02FA681343FB607B68FA689A62FA7807
:1036E0007B685A621437BD465DF8047B704700BFA3
:1036F00080B483B000AF78600B46FB7013463B800C
:10370000FB78002B03D13A887B68DA6302E03A88C1
:103710007B685A640C37BD465DF8047B704700BF78
:1037200080B483B000AF78607B68D3F8603318460C
:103730000C37BD465DF8047B704700BF80B483B092
:1037400000AF78607B68D3F8E83218460C37BD4686
:103750005DF8047B704700BF80B483B000AF786031
:103760007B68D3F8F03218460C37BD465DF8047B11
:10377000704700BF80B483B000AF78607B68D3F837
:10378000F83218460C37BD465DF8047B704700BF21
:1037900080B483B000AF78607B68D3F800331846FC
:1037A0000C37BD465DF8047B704700BF80B483B022
:1037B00000AF78607B68D3F8083318460C37BD46F5
:1037C0005DF8047B704700BF80B582B000AF7860C1
:1037D000786800F003F80837BD4680BD80B582B038
:1037E00000AF78607B680B4A934206D10A48FEF727
:1037F00037FF0948FEF7B0FD05E00848FEF730FF47
:103800000648FEF7A9FD7B680122C3F89823083714
:10381000BD4680BD00400150100000202000002067
:1038200080B584B000AF78607B68334A934225D17D
:103830003248FEF7ADFD0346002B14BF01230023E1
:10384000DBB283F00103DBB2FB73FB7B03F001030C
:10385000FB73FB7B002B0AD02848FEF71DFF0346B5
:1038600083F00103DBB2002B01D0012300E0002331
:10387000FB73FB7B03F00103FB7324E02048FEF79E
:1038800087FD0346002B14BF01230023DBB283F026
:103890000103DBB2FB73FB7B03F00103FB73FB7BD8
:1038A000002B0AD01648FEF7F7FE034683F001030B
:1038B000DBB2002B01D0012300E00023FB73FB7B74
:1038C00003F00103FB73FB7B002B0FD0FB7B002B72
:1038D00006D07B68D3F89833002B01D0012300E099
:1038E0000023FB73FB7B03F00103FB73FB7B184698
:1038F0001037BD4680BD00BF0040015010000020C1
:103900002000002080B483B000AF78600B46FB70CD
:103910001346BB707B681F4A93421BD11E481E4B47
:103920009A68FB789B0019460F238B40DB431A40B3
:10393000BB78F97889008B40134383601649164B96
:103940001A69FB7803F00703012000FA03F313431D
:103950000B6119E01048104BDA68FB789B001946A0
:103960000F238B40DB431A40BB78F97889008B40EA
:103970001343C3600849084B1A69FB784FF4807001
:1039800000FA03F313430B610C37BD465DF8047B6B
:10399000704700BF004001500049005080B483B020
:1039A00000AF78600B46FB707B68D3F8A023FB78F0
:1039B00022FA03F303F00103002B14BF01230023B9
:1039C000DBB218460C37BD465DF8047B704700BF7C
:1039D00080B586B000AFF8600B467A60FB72F8687D
:1039E000FFF71EFF0346002B00F0F181FB7AF86819
:1039F0001946FFF7D3FF034683F00103DBB2002B28
:103A000000F0E281FB7A7A685268F968582000FB7E
:103A100003F30B441A60FB7A7A689268F9685820BD
:103A200000FB03F30B4408331A60FB7A7A68D26810
:103A30001046FA68582101FB03F313441033186051
:103A4000FB7A7A68128B1046FA68582101FB03F35F
:103A5000134418335860FB7A7A681268F968582062
:103A600000FB03F30B4418331A60FB7A7A68D27EAA
:103A700042F44062F968582000FB03F30B444033E2
:103A80001A60FB68B14A934216D1FB7A012B13D816
:103A9000FB7A7A681269F968582000FB03F30B443B
:103AA00048331A60FB7A7A685269F968582000FB3B
:103AB00003F30B4450331A607B681B8C002B4FD1EF
:103AC0007B689B7803F07003DBB2102B06D07B6819
:103AD0009B7803F07003DBB2302B41D1FB689B4A2B
:103AE000934206D17B6893F8223003F00703BB753D
:103AF00005E07B6893F8223003F00303BB757B6815
:103B000093F822301B097B75FB7AFA7AF968582002
:103B100000FB02F20A4440325168BA7DD2020A43E5
:103B2000F968582000FB03F30B4440335A60BA7D18
:103B30007B7DF86811461A46FFF7E4FEFB7AFA7AB5
:103B4000F968582000FB02F20A444032126822F45D
:103B50008062F968582000FB03F30B4440331A607D
:103B60007B689B8B002B4CD17B689B7803F07003A8
:103B7000DBB2202B06D07B689B7803F07003DBB2AE
:103B8000302B3ED1FB68714A934205D17B689B7F05
:103B900003F00703BB7504E07B689B7F03F003031E
:103BA000BB757B689B7F1B097B75FB7AFA7AF9688A
:103BB000582000FB02F20A4440325168BA7DD2011B
:103BC0000A43F968582000FB03F30B4440335A6062
:103BD000BA7D7B7DF86811461A46FFF793FEFB7AA3
:103BE000FA7AF968582000FB02F20A44403212685F
:103BF00022F40062F968582000FB03F30B444033C1
:103C00001A60FB7AF86819461F2200F00FF97B68EA
:103C10009B7E082B00F2D48001A252F823F000BF53
:103C2000C13D0008453C00086B3C0008913C000881
:103C3000B73C0008DD3C0008273D0008513D000866
:103C40009B3D0008FB7AFA7AF968582000FB02F2E3
:103C50000A444032126842F00042F968582000FBE2
:103C600003F30B4440331A60ABE0FB7AFA7AF9684D
:103C7000582000FB02F20A444032126842F08042AF
:103C8000F968582000FB03F30B4440331A6098E0B6
:103C9000FB7AFA7AF968582000FB02F20A444032B3
:103CA000126842F04042F968582000FB03F30B44CD
:103CB00040331A6085E0FB7AFA7AF968582000FBF5
:103CC00002F20A441832126842F00062F968582081
:103CD00000FB03F30B4418331A6072E0FB7AFA7AA4
:103CE000F968582000FB02F20A444032126842F0A0
:103CF0008042F968582000FB03F30B4440331A60FC
:103D0000FB7AFA7AF968582000FB02F20A4418326A
:103D1000126842F00062F968582000FB03F30B447C
:103D200018331A604DE0FB7AFA7AF968582000FBE4
:103D300002F20A441832126842F08052F9685820A0
:103D400000FB03F30B4418331A603AE000400150C3
:103D5000FB7AFA7AF968582000FB02F20A444032F2
:103D6000126842F00042F968582000FB03F30B444C
:103D700040331A60FB7AFA7AF968582000FB02F2A5
:103D80000A441832126842F08052F968582000FB49
:103D900003F30B4418331A6013E0FB7AFA7AF968DC
:103DA000582000FB02F20A441832126842F0C05256
:103DB000F968582000FB03F30B4418331A6000E045
:103DC00000BF0023FB7504E00223FB7501E0012323
:103DD000FB75FB7D18461837BD4680BD80B487B0A3
:103DE00000AFF8600B467A60FB7200237B6114E041
:103DF0007B697A6822FA03F303F00103002B09D0F0
:103E00007B695A00FB7A40F201119940FB68C43289
:103E100043F822107B6901337B617B69042BE7D96E
:103E20001C37BD465DF8047B704700BF80B487B087
:103E300000AFF8600B467A60FB7200237B6113E0F1
:103E40007B697A6822FA03F303F00103002B08D0A0
:103E50007B695A00FB7A01219940FB68CE3243F816
:103E600022107B6901337B617B69042BE8D91C3705
:103E7000BD465DF8047B704780B485B000AFF86044
:103E80000B467A60FB72FB68094A934205D1FB7AC4
:103E900008497A6841F8232004E0FB7A06497A68E9
:103EA00041F823201437BD465DF8047B704700BFFE
:103EB00000400150A443FF1FC443FF1F80B588B0DA
:103EC00000AF78607B68824A934202D1814BBB612C
:103ED00001E0814BBB617868FFF722FC7861002329
:103EE000FB617B6903F01003002B2BD07868FFF790
:103EF0005DFC786121E00122FB6902FA03F33B617A
:103F00007A693B691340002B14D0FB69DBB27868F7
:103F100019461022FFF78AFFFB699B00BA69134418
:103F20001B68FB60FB68002B03D0FB6810209847E0
:103F300007E006E0FB690133FB617B69002BDAD106
:103F4000C3E0C2E07B6903F00103002B2BD078684B
:103F5000FFF7F4FB786121E00122FB6902FA03F329
:103F60003B617A693B691340002B14D0FB69DBB2DB
:103F7000786819460F22FFF759FFFB699B00BA6961
:103F800013441B68FB60FB68002B03D0FB68012017
:103F9000984707E006E0FB690133FB617B69002B72
:103FA000DAD192E091E07B6903F00203002B2BD081
:103FB0007868FFF7D1FB786121E00122FB6902FA02
:103FC00003F33B617A693B691340002B14D0FB6912
:103FD000DBB2786819460E22FFF728FFFB699B00C9
:103FE000BA6913441B68FB60FB68002B03D0FB68B5
:103FF0000220984707E006E0FB690133FB617B691B
:10400000002BDAD161E060E07B6903F00403002B50
:104010002BD07868FFF7AEFB786121E00122FB69C5
:1040200002FA03F33B617A693B691340002B14D019
:10403000FB69DBB2786819460422FFF7F7FEFB69DB
:104040009B00BA6913441B68FB60FB68002B03D01C
:10405000FB680420984707E006E0FB690133FB6139
:104060007B69002BDAD130E02FE07B6903F0080395
:10407000002B2AD07868FFF78BFB786121E00122C2
:10408000FB6902FA03F33B617A693B691340002B39
:1040900014D0FB69DBB2786819460822FFF7C6FE28
:1040A000FB699B00BA6913441B68FB60FB68002B2B
:1040B00003D0FB680820984707E006E0FB6901335E
:1040C000FB617B69002BDAD1FFE72037BD4680BD5D
:1040D00000400150A443FF1FC443FF1F80B483B0BE
:1040E00000AF78600B46FB701346BB70FB789B08F3
:1040F000DBB21846FB789B08DBB21A467B680432B9
:1041000053F82220FB7803F00303DB001946F82361
:104110008B40DB4302EA03017B68021D43F8221057
:10412000FB789B08DBB21846FB789B08DBB21A468B
:104130007B68043253F82220BB78F97801F0030140
:10414000C9008B4042EA03017B68021D43F822103C
:104150000C37BD465DF8047B704700BF80B483B068
:1041600000AF78600B46FB701346BB707B685A6FDC
:10417000FB785B00194603238B40DB431A407B68C6
:104180005A677B685A6FBB78F97849008B401A43AD
:104190007B685A670C37BD465DF8047B704700BFEB
:1041A00080B483B000AF78607B689B6BDBB223F098
:1041B0007F03DBB218460C37BD465DF8047B7047C1
:1041C00080B483B000AF786039607B68DA6C3B689C
:1041D0001A437B68DA640C37BD465DF8047B704790
:1041E00080B584B000AFF860B9601346FB71F86821
:1041F00000F0B0FBFB68114A5A63BB68DB88F868C3
:10420000194600F01DF8FB79002B08D0BB681A682E
:10421000BB681B79F86811461A4600F03BF8FB684A
:104220004FF4A0629A63FB684FF0FF32DA64FB68D8
:1042300000221A641037BD4680BD00BF03033F074C
:1042400080B483B000AF78600B467B807B8803F43A
:10425000F843B3F5F04F0ED17B68DB6B1B0C1B04EE
:104260007A88D2B21A437B885B0003F47E431A43F8
:104270007B68DA6308E07B68DB6B1B0C1B047A88C5
:1042800012021A437B68DA630C37BD465DF8047B83
:10429000704700BF80B586B000AFF860B9601346C4
:1042A000FB71BB68204A934219D8FB68DB6B23F48F
:1042B0000032FB68DA63FB79002B08D0BB68F86832
:1042C00019460A2200F004FC0346FB7527E0F86853
:1042D000B9680A2200F08AFB0346FB751FE0BB6841
:1042E000124A934219D8FB68DB6B43F40032FB6837
:1042F000DA63FB79002B08D0BB68F86819461922ED
:1043000000F0E6FB0346FB7509E0F868B96819227E
:1043100000F06CFB0346FB7501E00123FB75FB7DA0
:1043200018461837BD4680BDA0860100801A0600D9
:1043300080B584B000AF78600B467B8013467B70FD
:104340007B8843F480639BB2FB607B78012B03D1B5
:10435000FB6843F00103FB607B68D3F8083103F08E
:10436000E063002B10D100BF7868FFF719FF034608
:10437000802BF9D078684FF40051FFF721FF7B685C
:10438000FA68C3F8802003E07B68FA68C3F88021EC
:104390001037BD4680BD00BF80B584B000AF7860E7
:1043A0000B467B8013467B707B8843F4A0639BB2F3
:1043B000FB607B78012B03D1FB6843F00103FB60BA
:1043C0007B68D3F8083103F0E063002B10D100BF05
:1043D0007868FFF7E5FE0346802BF9D078684FF444
:1043E0000051FFF7EDFE7B68FA68C3F8802003E018
:1043F0007B68FA68C3F880211037BD4680BD00BFD6
:1044000080B582B000AF78607B68D3F8083103F0E4
:10441000E063002B11D100BF7868FFF7C1FE0346AF
:10442000802BF9D078684FF40051FFF7C9FE7B6804
:104430004FF4C062C3F8802004E07B684FF4C06290
:10444000C3F880210837BD4680BD00BF80B582B06B
:1044500000AF78600B46FB707B68D3F8083103F03F
:10446000E063002B10D100BF7868FFF799FE034688
:10447000802BF9D078684FF40051FFF7A1FEFA784D
:104480007B68C3F8802003E0FA787B68C3F880215A
:104490000837BD4680BD00BF80B582B000AF7860F0
:1044A0007B68D3F8083103F0E063002B11D100BF23
:1044B0007868FFF775FE0346802BF9D078684FF4D3
:1044C0000051FFF77DFE7B684FF40072C3F8802037
:1044D00004E07B684FF40072C3F880210837BD46C2
:1044E00080BD00BF80B582B000AF78607B68D3F834
:1044F000083103F0E063002B11D100BF7868FFF7AB
:104500004FFE0346802BF9D078684FF40051FFF737
:1045100057FE7B684FF44072C3F8802004E07B684C
:104520004FF44072C3F880210837BD4680BD00BFFC
:1045300080B485B000AF78607B68D3F80C3103F0AD
:10454000E063002B03D17B685B6DFB7303E07B684A
:10455000D3F81C31FB73FB7B18461437BD465DF85E
:10456000047B704780B400AF034BD3F8C4301846C7
:10457000BD465DF8047B70470040005080B500AF39
:1045800000BFFFF7EFFF034603F48073002BF8D161
:10459000034A034B5B6843F00103536080BD00BFD7
:1045A000004A005080B500AF00BFFFF7DBFF0346B5
:1045B00003F48073002BF8D1034A034B5B6823F0AC
:1045C0000103536080BD00BF004A005080B582B037
:1045D00000AF0346FB8000BFFFF7C4FF034603F4B0
:1045E0008073002BF8D10549044B5B689AB2FB88B5
:1045F0001B0413434B600837BD4680BD004A005082
:1046000080B582B000AF786000BFFFF7ABFF034614
:1046100003F40063002BF8D1094A7B681B6813621E
:1046200000BFFFF79FFF034603F48053002BF8D130
:10463000034A7B685B6853620837BD4680BD00BF94
:10464000004A005080B483B000AF7860064B1A6A0D
:104650007B681A60044B5A6A7B685A600C37BD4607
:104660005DF8047B704700BF004A005080B584B0FD
:1046700000AFF860B9601346FB71F86800F06AF9A2
:10468000BB685B79002B15D1FB79002B12D0BB687E
:104690001B79002B07D0BB681B68F86819460222FB
:1046A00000F016FA06E0BB681B68F868194602229B
:1046B00000F09CF9FB680F4A5A63FB684FF4A26252
:1046C0009A63BB685B79002B07D1BB689B7943F089
:1046D0000B03DBB21A46FB68DA63FB684FF0FF326C
:1046E000DA64BB681B891A46FB681A641037BD463A
:1046F00080BD00BF02013F0780B483B000AF786087
:1047000039607B68DB6B23F47F027B68DA637B684C
:10471000DA6B3B681A437B68DA630C37BD465DF899
:10472000047B704780B485B000AF78607B68D3F8B5
:104730000C3103F0E063002B03D17B685B6DFB81E0
:1047400003E07B68D3F81C31FB81FB8918461437E2
:10475000BD465DF8047B704780B483B000AF7860DD
:1047600039607B681A6C3B6803F4FE331A437B683C
:104770001A647B68DA6B3B685B039BB21A437B6805
:10478000DA630C37BD465DF8047B704780B483B0B4
:1047900000AF786039607B681A6C3B6803F4FE33C5
:1047A000DB431A407B681A647B68DA6B3B685B0307
:1047B0009BB2DB431A407B68DA630C37BD465DF879
:1047C000047B704780B483B000AF78607B689B6BDC
:1047D000DBB223F07F03DBB218460C37BD465DF831
:1047E000047B704780B483B000AF786039607B6829
:1047F0003A68DA640C37BD465DF8047B704700BF49
:1048000080B586B000AFF860B9601346FB71102325
:104810007B61F86800F09EF8BB681B7A002B02D021
:10482000BB681B7A7B61FB79002B14D0BB681B79BA
:10483000002B09D0BB681B681A467B69F8681146D3
:104840001A4600F045F906E0BB681B68F86819468F
:104850007A6900F0CBF8BB68DB79013B5A007B69D1
:104860005B0801331B02134343F4403343F001035D
:10487000FA68D363BB685B79013B1B0643F4817222
:10488000FB685A63BB689B79002B09D0FB685A6BA5
:10489000BB689B79013B1B041A43FB685A6308E021
:1048A000FB685A6BBB685B79013B1B041A43FB68CE
:1048B0005A63FB684FF4A0629A63FB684FF0FF32C3
:1048C000DA64BB685B891A46FB681A641837BD4610
:1048D00080BD00BF80B582B000AF78600B467B80A2
:1048E0007B68D3F8083103F0E063002B10D100BFE0
:1048F0007868FFF767FF0346802BF9D078684FF49C
:104900000051FFF76FFF7A887B68C3F8802003E0CF
:104910007A887B68C3F880210837BD4680BD00BF18
:1049200080B485B000AF78607B68D3F80C3103F0B9
:10493000E063002B03D17B685B6DFB8103E07B6848
:10494000D3F81C31FB81FB8918461437BD465DF84E
:10495000047B704780B582B000AF78607B681A4AEC
:10496000934203D07B68194A934203D1184800F060
:104970009DF916E07B68174A934203D07B68164A7C
:10498000934203D1154800F091F90AE07B68144A7C
:10499000934203D07B68134A934202D1124800F03D
:1049A00085F97B680322DA6000BF7B68DB6803F06F
:1049B0000103002BF9D07B681B6C23F00F027B688E
:1049C0001A640837BD4680BD000003400002034062
:1049D00008000340000002480002024808000248A4
:1049E00000400248004202480840024880B58EB0AC
:1049F00000AFF860B9607A60BB68632B5AD97B68F6
:104A0000002B57D0FDF7E8FC02462F4BA3FB0223F7
:104A10005B093B62BB682C4AA2FB03235B09BB60BA
:104A20004FF48063FB620123BB6240F2FF337B6281
:104A30004FF480633B6322E03B6A3A6B02FB03F274
:104A4000BB68796801FB03F3B2FBF3F3FB61FB691D
:104A50009B0ABB61FB69C3F309037B61BB69B3F5C7
:104A6000806F09D87A697B6A9A4205D27B697B623A
:104A7000BB69BB623B6BFB623B6B013B3B633B6BCC
:104A8000002BD9D1FB6A013B43F40042FB681A6159
:104A9000FB685A690D4B13407A68013A92021A4337
:104AA000BB6A013B1B041A43FB685A61002387F869
:104AB000373002E0012387F8373097F8373018464F
:104AC0003837BD4680BD00BF1F85EB51EF8000FC2D
:104AD00080B58CB000AFF860B9607A60FDF77CFCFF
:104AE00003463B62BB687A6802FB03F3FB61012368
:104AF000FB623A6AFB699A425FDD3A6AFB6992FBA4
:104B0000F3F3BB6210E0FB6A0133FB62BB687A68B7
:104B100002FB03F31A46FB6A03FB02F3FB613A6AEA
:104B2000FB6992FBF3F3BB62BB6A40F2FE32934235
:104B3000E9D83A6A7B68B96A01FB03F3F96A01FBB9
:104B400003F3B2FBF3F3BB613A6ABB6A01337968E2
:104B500001FB03F3F96A01FB03F3B2FBF3F37B619F
:104B6000BA687B69D31A83EAE372A2EBE372B9688D
:104B7000BB69CB1A002BB8BF5B429A4202DABB6A10
:104B80000133BB62BB6AC3F58063BB62BB6A43F49B
:104B90008042FB681A61FB685A690C4B13407A68C3
:104BA000013A92021A43FB6A013B1B041A43FB6859
:104BB0005A61002387F8273002E0012387F8273065
:104BC00097F8273018463037BD4680BDEF8000FC8F
:104BD00080B485B000AFF860B9603B601346FB71EC
:104BE000FB68D3F8083123F0E062FB68C3F80821C2
:104BF000FB68D3F80821094B13403A681102BA68E0
:104C00001143FA7912060A431A43FB68C3F80821D4
:104C10001437BD465DF8047B704700BFC0C0FFF885
:104C200080B485B000AFF860B9603B601346FB719B
:104C3000FB68D3F80C3123F0E062FB68C3F80C2169
:104C4000FB68D3F80C210A4B13403A681102BA688A
:104C50001143FA7912060A43134343F08052FB686A
:104C6000C3F80C211437BD465DF8047B704700BFC4
:104C7000C0C0FFEF80B485B000AFF8600B467A602B
:104C8000FB72FB689A69FB7A072101FA03F3DB43A5
:104C90001A40FB7A796801FA03F31A43FB689A61B8
:104CA0001437BD465DF8047B704700BF80B582B005
:104CB00000AF78607B68284A934218D14FF40060B7
:104CC000FDF7CEFC00BF4FF40060FDF7E5FC0346A6
:104CD000002BF8D14FF40060FDF73EFB00BF4FF40E
:104CE0000060FDF755FB0346002BF8D130E07B68F0
:104CF0001A4A934214D11A48FDF7B2FC00BF184873
:104D0000FDF7CAFC0346002BF9D11548FDF724FB3B
:104D100000BF1348FDF73CFB0346002BF9D117E019
:104D20007B68104A934213D10F48FDF799FC00BFEE
:104D30000D48FDF7B1FC0346002BF9D10A48FDF7F9
:104D40000BFB00BF0848FDF723FB0346002BF9D1FE
:104D50000837BD4680BD00BF080003400800024878
:104D600080000010084002480001001080B500AF2C
:104D70002020FDF765FC0348FDF772FC0148FDF7B4
:104D8000EBFA80BD0200002080B582B000AF7860F1
:104D9000FFF7ECFF074A7B689B685360054A7B6816
:104DA0005B681361034A7B681B6853610837BD4623
:104DB00080BD00BF0080005080B584B000AF786037
:104DC000144B1B68002B02D1124B134A1A60114B73
:104DD0001B68FB607B68033323F003037B600D4B90
:104DE0001A687B6813440D4A934207D2094B1A682C
:104DF0007B681344074A1360FB6806E00CF072FC02
:104E000002460C2313604FF0FF3318461037BD469F
:104E100080BD00BFD443FF1F00000020C0FF03205F
:104E200080B400AFBD465DF8047B704790B593B089
:104E300002AF7860084611461A460346FB700B46DF
:104E4000BB7013467B70012387F83B30012387F842
:104E50003A3007F11C0300221A60043300221A6062
:104E6000043300221A60043300221A600433002243
:104E70001A60043307F1080300221A600433002289
:104E80001A60043300221A60043300221A600433CB
:104E900000221A600433012387F83930002387F891
:104EA0003830002387F83730062387F8363097F8F4
:104EB00036303B77BB787B777B78BB7703233B63CC
:104EC0000023FB6302E0FB6B0133FB63FB6B4FF6DC
:104ED000FE729342F7DDFA7897F83B1007F11C0455
:104EE0003B6B009397F83A3001937868234602F0C1
:104EF00077FE4437BD4690BD90B591B004AF786061
:104F0000084611461A460346FB700B46BB70134613
:104F10007B70012387F82730012387F8263007F1BB
:104F20000C0300221A60043300221A6004330022AA
:104F30001A60043300221A60043300221A6004331A
:104F400000233B81012387F82E30BB78002B03D14F
:104F5000022387F82F3002E0032387F82F3097F8D9
:104F60002F303B7301233B62002387F82630FA7809
:104F700097F8271007F10C043B6A009397F8263046
:104F800001937868234602F02BFE034687F82E3003
:104F900097F82E30002B5DD1012387F827300123AD
:104FA00087F82630FA7897F8271007F10C035C1C75
:104FB0003B6A009397F826300193012302937868A7
:104FC000234602F037FE034687F82E3097F82E303E
:104FD000002B3FD197F84030002B0CD07B7BD9B20F
:104FE0007B78012202FA03F3DBB20A461343DBB2F9
:104FF000DBB27B730DE07B7BD9B27B78012202FAB6
:1050000003F3DBB2DB43DBB20A461340DBB2DBB2B5
:105010007B7302233B62012387F827300023BB62A6
:1050200002E0BB6A0133BB62BB6A4FF6FE72934279
:10503000F7DDFA7897F8271007F10C043B6A009324
:1050400097F8263001937868234602F0C9FD03469D
:1050500087F82E3097F82E30002B01D1012300E085
:10506000002318463437BD4690BD00BF90B585B0CB
:1050700002AF7860084611461A460346FB700B469D
:10508000BB7013467B70F978BA787C780123009363
:1050900078682346FFF730FF034618460C37BD46B5
:1050A00090BD00BF90B585B002AF7860084611464C
:1050B0001A460346FB700B46BB7013467B70F978AB
:1050C000BA787C780023009378682346FFF714FFB2
:1050D000034618460C37BD4690BD00BF90B591B051
:1050E00004AF78600B46FB701346BB70012387F852
:1050F0002730012387F8263007F10C0300221A60BD
:10510000043300221A60043300221A6004330022A0
:105110001A60043300221A600433012387F8253013
:10512000BB78002B03D1002387F82F3002E0012346
:1051300087F82F3097F82F303B7301233B62012310
:1051400087F82630FA7897F8271007F10C043B6AA5
:10515000009397F8263001937868234602F040FDCB
:10516000034687F8253097F82530002B27D10123F7
:1051700087F82730012387F826300023BB6202E03E
:10518000BB6A0133BB62BB6A4FF6FE729342F7DD26
:10519000FA7897F827100223009397F826300193A6
:1051A000012302937868084B02F044FD034687F818
:1051B000253097F82530002B01D1034BFFE7184627
:1051C0003437BD4690BD00BFD843FF1F80B483B0C5
:1051D00000AF78600B46FB707B685A6AFB7822FA56
:1051E00003F303F0010318460C37BD465DF8047B5A
:1051F000704700BF80B582B000AF78607B681A68E6
:105200007B681B7C10461946FFF7E0FF03461846F3
:105210000837BD4680BD00BF80B500AF1F48FFF70F
:10522000E9FF0346002B14BF01230023DAB21C4B15
:105230001A701C48FFF7DEFF0346002B14BF012342
:105240000023DAB2164B5A701748FFF7D3FF034614
:10525000002B14BF01230023DAB2144B9A741448B4
:10526000FFF7C8FF0346002B14BF01230023DAB267
:105270000E4B1A720F48FFF7BDFF0346002B14BFF9
:1052800001230023DAB2094B5A7100F015F800F03F
:1052900057F800F03DFA00F027F880BD60360108AD
:1052A0000851FF1F4C3601089C3601084848FF1F73
:1052B000883601086C34010880B500AF08480AF050
:1052C00013FD05F053FE05F0DFFD04F0ADFD05F024
:1052D0002BFA05F047F803480AF006FD80BD00BF31
:1052E000003001081030010880B500AF00F080FAEE
:1052F00080BD00BF80B483B000AF78600B46FB7008
:105300007B685A6AFB7822FA03F303F0010318461C
:105310000C37BD465DF8047B704700BF80B582B096
:1053200000AF78607B681A687B681B7C1046194662
:10533000FFF7E0FF034618460837BD4680BD00BFB3
:1053400080B500AF0A4B1B78002B0A48FFF7E6FF39
:105350000346002B14BF01230023DAB2064B9A71D7
:1053600000F00CF800F0FEF800F054F980BD00BF2A
:105370000851FF1F103601084848FF1F80B584B050
:1053800000AF0023FB604023FB72FB7A7048194694
:105390000022FFF7A3FEF860FB681B7803F001030F
:1053A000002B14BF01230023DAB26A4B1A70FB688A
:1053B0001B785B08DBB203F00103002B14BF012351
:1053C0000023DAB2634B5A70FB681B789B08DBB290
:1053D00003F00103002B14BF01230023DAB25D4B5D
:1053E0009A70FB681B78DB08DBB203F00103002B2B
:1053F00014BF01230023DAB2564BDA70FB681B7826
:105400001B09DBB203F00103002B14BF01230023AF
:10541000DAB2504B1A71FB681B785B09DBB203F000
:105420000103002B14BF01230023DAB2494B5A7148
:10543000FB681B789B09DBB203F00103002B14BF50
:1054400001230023DAB2444B1A70FB681B78DB0996
:10545000DBB203F00103002B14BF01230023DAB2F7
:105460003D4B5A70FB6801331B7803F00103002B9E
:1054700014BF01230023DAB2374B9A70FB68013363
:105480001B785B08DBB203F00103002B14BF012380
:105490000023DAB2314B1A70FB6801331B789B088A
:1054A000DBB203F00103002B14BF01230023DAB2A7
:1054B0002A4B5A70FB6801331B78DB08DBB203F020
:1054C0000103002B14BF01230023DAB2234B9A708F
:1054D000FB6801331B781B09DBB203F00103002BCF
:1054E00014BF01230023DAB21C4B1A71FB6801338D
:1054F0001B785B09DBB203F00103002B14BF01230F
:105500000023DAB2154B9A71FB6801331B789B09B3
:10551000DBB203F00103002B14BF01230023DAB236
:105520000E4B5A71FB6801331B78DB09DBB203F0C9
:105530000103002B14BF01230023DAB2074BDA70FA
:10554000074A3B4607CA03C31A701037BD4680BDE1
:105550005C8AFE1FA848FF1FEC47FF1FBC48FF1FC7
:105560002030010880B582B000AF00237B60422369
:10557000FB70FB78244819460022FFF7AFFD7860E6
:105580007B681B785B08DBB203F00103002B14BFC0
:1055900001230023DAB21D4B9A737B681B789B08AA
:1055A000DBB203F00103002B14BF01230023DAB2A6
:1055B000174B1A717B681B78DB08DBB203F0010321
:1055C000002B14BF01230023DAB2114B5A717B6800
:1055D0001B781B09DBB203F00103002B14BF01236E
:1055E0000023DAB20A4B9A717B681B785B09DBB245
:1055F00003F00103002B14BF01230023DAB2044B94
:105600001A720837BD4680BD5C8AFE1F4848FF1FDE
:105610006048FF1F80B582B000AF00237B6040234D
:10562000FB70FB78244819460022FFF757FD78608D
:105630007B681B781B09DBB203F00103002B14BF4E
:1056400001230023DAB21D4B1A747B681B785B09B7
:10565000DBB203F00103002B14BF01230023DAB2F5
:10566000174B9A707B681B789B09DBB203F0010330
:10567000002B14BF01230023DAB2114BDA707B68D0
:105680001B78DB09DBB203F00103002B14BF0123FD
:105690000023DAB2094B9A707B6801331B7803F060
:1056A0000103002B14BF01230023DAB2034BDA708D
:1056B0000837BD4680BD00BF688AFE1F4848FF1FEF
:1056C000E447FF1F80B483B000AF78600B46FB70E7
:1056D0007B685A6AFB7822FA03F303F00103184649
:1056E0000C37BD465DF8047B704700BF80B582B0C3
:1056F00000AF78607B681A687B681B7C104619468F
:10570000FFF7E0FF034618460837BD4680BD00BFDF
:1057100080B500AF024B5B78002B00F003F880BD32
:105720000851FF1F80B500AF1B48FFF7DFFF03469E
:10573000002B14BF01230023DAB2184B9A741848C7
:10574000FFF7D4FF0346002B14BF01230023DAB276
:10575000124B5A721348FFF7C9FF0346002B14BFC0
:1057600001230023DAB20D4B9A720F48FFF7BEFFF8
:105770000346002B14BF01230023DAB2074BDA7271
:105780000A48FFF7B3FF0346002B14BF0123002391
:10579000DAB2024B1A7380BD9C3601084848FF1FDD
:1057A000C4360108D8360108EC3601080037010874
:1057B00080B483B000AF78607B689B6893F8263034
:1057C000DBB218460C37BD465DF8047B704700BF5E
:1057D00080B483B000AF78607B689B6893F8273013
:1057E000DBB218460C37BD465DF8047B704700BF3E
:1057F00080B500AF05480AF077FA00F00BF800F02A
:10580000E7F803480AF070FA80BD00BF2C300108A9
:105810003430010890B591B004AF012387F82F30E0
:10582000002387F82E30012387F82D304FF0000336
:10583000BB624FF000037B6242F210733B6242F2A4
:105840001073FB6140F66E73BB6119237B619F236C
:10585000FB7200233B8100237B8297F82F2007F106
:105860000B040123009397F82E3001935248114600
:105870009422234602F0B4F900BF4F48FFF798FF87
:105880000346002BF9D1012387F82E3097F82F20FB
:1058900007F108040223009397F82E30019397F83C
:1058A0002D300293444811469422234602F0C2F957
:1058B00000BF4148FFF78CFF0346002BF9D13B7A2C
:1058C0001B029AB27B7A9BB213439BB27B827B8A88
:1058D000C3F30B037B827B8A07EE903AF8EE677A7C
:1058E0009FED367AC7EE277AB7EE007A77EEC77A61
:1058F000C7ED097A9FED327AD7ED097AC7EE277A9C
:10590000C7ED097AD7ED097AB0EE007AC7EE877A4B
:10591000C7ED097AD7ED097A9FED297AC7EE877A24
:10592000C7ED037AF8680BF087F802460B4610467D
:1059300019460AF081FC02460B46104619460BF048
:10594000B1FB0346FB60D7ED037A9FED1E7AC7EEED
:10595000877AC7ED037A7B6907EE903AF8EE677AAB
:105960009FED197A77EE877AB7EE007AC7EE277A3D
:1059700097ED037A77EE277AC7ED037AB7EE007AD0
:10598000D7ED037AC7EE277AC7ED037AD7ED037A0E
:105990009FED0D7A77EEC77AC7ED037AD7ED037ADC
:1059A000FCEEE77AC7ED017A3B79DAB2074B1A7061
:1059B0003437BD4690BD00BF688AFE1F00F07F45AA
:1059C00000401C4600E0764533938843D648FF1FCD
:1059D00090B58FB004AF012387F82730002387F8F4
:1059E0002630012387F825304FF000033B624FF04B
:1059F0000003FB6142F21073BB6142F210737B61E2
:105A000040F66E733B611923FB60DC23FB700023BF
:105A10003B8000237B8197F82720FC1C0123009307
:105A200097F8263001934D4811469422234602F000
:105A3000D7F800BF4948FFF7BBFE0346002BF9D15A
:105A4000012387F8263097F827203C46022300934D
:105A500097F82630019397F8253002933F48114676
:105A60009422234602F0E6F800BF3C48FFF7B0FE60
:105A70000346002BF9D13B781B029AB27B789BB28C
:105A800013439BB27B817B89C3F30B037B817B89AF
:105A900007EE903AF8EE677A9FED317AC7EE277AF3
:105AA000B7EE007A77EEC77AC7ED077A9FED2D7AC9
:105AB000D7ED077AC7EE277AC7ED077AD7ED077AD1
:105AC000B0EE007AC7EE877AC7ED077AD7ED077A8E
:105AD0009FED247AC7EE877AC7ED017A78680AF0DD
